{
  "contractName": "Wal",
  "abi": [
    {
      "inputs": [
        {
          "internalType": "address",
          "name": "",
          "type": "address"
        }
      ],
      "name": "Rest",
      "outputs": [
        {
          "internalType": "uint256",
          "name": "",
          "type": "uint256"
        }
      ],
      "stateMutability": "view",
      "type": "function",
      "constant": true
    },
    {
      "stateMutability": "payable",
      "type": "receive",
      "payable": true
    },
    {
      "inputs": [
        {
          "internalType": "address",
          "name": "_address",
          "type": "address"
        }
      ],
      "name": "AddressBalance",
      "outputs": [
        {
          "internalType": "uint256",
          "name": "",
          "type": "uint256"
        }
      ],
      "stateMutability": "view",
      "type": "function",
      "constant": true
    },
    {
      "inputs": [],
      "name": "ContractAddress",
      "outputs": [
        {
          "internalType": "address",
          "name": "",
          "type": "address"
        }
      ],
      "stateMutability": "view",
      "type": "function",
      "constant": true
    },
    {
      "inputs": [],
      "name": "ContractBalance",
      "outputs": [
        {
          "internalType": "uint256",
          "name": "",
          "type": "uint256"
        }
      ],
      "stateMutability": "view",
      "type": "function",
      "constant": true
    },
    {
      "inputs": [
        {
          "internalType": "address",
          "name": "_address",
          "type": "address"
        }
      ],
      "name": "getRest",
      "outputs": [
        {
          "internalType": "uint256",
          "name": "",
          "type": "uint256"
        }
      ],
      "stateMutability": "view",
      "type": "function",
      "constant": true
    },
    {
      "inputs": [
        {
          "internalType": "address payable",
          "name": "_address",
          "type": "address"
        },
        {
          "internalType": "uint256",
          "name": "amount",
          "type": "uint256"
        }
      ],
      "name": "Send",
      "outputs": [],
      "stateMutability": "nonpayable",
      "type": "function"
    }
  ],
  "bytecode": "0x608060405234801561001057600080fd5b5061075f806100206000396000f3fe6080604052600436106100595760003560e01c8063145f48be146100f857806316b444a01461013557806330a3c507146101725780633b6680591461019b57806366d11c1a146101c6578063d46fa5fd146101f1576100f3565b366100f3576100af346000803373ffffffffffffffffffffffffffffffffffffffff1673ffffffffffffffffffffffffffffffffffffffff1681526020019081526020016000205461022e90919063ffffffff16565b6000803373ffffffffffffffffffffffffffffffffffffffff1673ffffffffffffffffffffffffffffffffffffffff16815260200190815260200160002081905550005b600080fd5b34801561010457600080fd5b5061011f600480360381019061011a919061056c565b6102b6565b60405161012c919061066a565b60405180910390f35b34801561014157600080fd5b5061015c6004803603810190610157919061056c565b6102d7565b604051610169919061066a565b60405180910390f35b34801561017e57600080fd5b5061019960048036038101906101949190610595565b61031f565b005b3480156101a757600080fd5b506101b0610482565b6040516101bd919061066a565b60405180910390f35b3480156101d257600080fd5b506101db61048a565b6040516101e8919061062f565b60405180910390f35b3480156101fd57600080fd5b506102186004803603810190610213919061056c565b610492565b604051610225919061066a565b60405180910390f35b6000808284019050838110156102ac576040517f08c379a000000000000000000000000000000000000000000000000000000000815260040180806020018281038252601b8152602001807f536166654d6174683a206164646974696f6e206f766572666c6f77000000000081525060200191505060405180910390fd5b8091505092915050565b60008173ffffffffffffffffffffffffffffffffffffffff16319050919050565b60008060008373ffffffffffffffffffffffffffffffffffffffff1673ffffffffffffffffffffffffffffffffffffffff168152602001908152602001600020549050919050565b8181806000808473ffffffffffffffffffffffffffffffffffffffff1673ffffffffffffffffffffffffffffffffffffffff1681526020019081526020016000205410156103a2576040517f08c379a00000000000000000000000000000000000000000000000000000000081526004016103999061064a565b60405180910390fd5b8373ffffffffffffffffffffffffffffffffffffffff166108fc849081150290604051600060405180830381858888f193505050501580156103e8573d6000803e3d6000fd5b5061043a836000808773ffffffffffffffffffffffffffffffffffffffff1673ffffffffffffffffffffffffffffffffffffffff168152602001908152602001600020546104aa90919063ffffffff16565b6000808673ffffffffffffffffffffffffffffffffffffffff1673ffffffffffffffffffffffffffffffffffffffff1681526020019081526020016000208190555050505050565b600047905090565b600030905090565b60006020528060005260406000206000915090505481565b600082821115610522576040517f08c379a000000000000000000000000000000000000000000000000000000000815260040180806020018281038252601e8152602001807f536166654d6174683a207375627472616374696f6e206f766572666c6f77000081525060200191505060405180910390fd5b818303905092915050565b60008135905061053c816106e4565b92915050565b600081359050610551816106fb565b92915050565b60008135905061056681610712565b92915050565b60006020828403121561057e57600080fd5b600061058c8482850161052d565b91505092915050565b600080604083850312156105a857600080fd5b60006105b685828601610542565b92505060206105c785828601610557565b9150509250929050565b6105da81610696565b82525050565b60006105ed601283610685565b91507f52657374206973206e6f7420656e6f75676800000000000000000000000000006000830152602082019050919050565b610629816106da565b82525050565b600060208201905061064460008301846105d1565b92915050565b60006020820190508181036000830152610663816105e0565b9050919050565b600060208201905061067f6000830184610620565b92915050565b600082825260208201905092915050565b60006106a1826106ba565b9050919050565b60006106b3826106ba565b9050919050565b600073ffffffffffffffffffffffffffffffffffffffff82169050919050565b6000819050919050565b6106ed81610696565b81146106f857600080fd5b50565b610704816106a8565b811461070f57600080fd5b50565b61071b816106da565b811461072657600080fd5b5056fea2646970667358221220cd24f6b4d5b33bc7248062f3c5303ce7003ddc72d5b4e29f5914e8925493b19364736f6c63430007060033",
  "immutableReferences": {},
  "source": "// SPDX-License-Identifier: GPL-3.0\r\npragma solidity >=0.6.0 <0.8.0;\r\npragma experimental ABIEncoderV2;\r\nimport \"@openzeppelin/contracts/math/SafeMath.sol\";\r\n\r\ncontract Wal {\r\n    using SafeMath for uint256;\r\n    enum Dir {In, Out} //Transfers - in or out\r\n    struct Transfer {\r\n        Dir dir; \r\n        uint amount;\r\n    }\r\n    mapping (address => uint256) public Rest; //Wallet of sender\r\n    receive() external payable {\r\n        Rest[msg.sender] = Rest[msg.sender].add(msg.value);//Calculate sender wallet rest\r\n    }\r\n\r\n    function AddressBalance(address _address) public view returns (uint256) {\r\n        //balance of each address - not sc balance, but eth balance\r\n        return _address.balance;\r\n    }\r\n function ContractAddress() public view returns(address){ //Contract address\r\n         return address(this);\r\n     }\r\n    function ContractBalance() public view returns (uint256) {\r\n        //Contract balance\r\n        return address(this).balance;\r\n    }\r\n    function getRest(address _address) public view returns(uint) {\r\n         return Rest[_address];\r\n     }\r\n\r\n     function Send(address payable _address, uint256 amount) public restAddress(_address, amount) {//\r\n         _address.transfer(amount);\r\n         Rest[_address] = Rest[_address].sub(amount);\r\n     }\r\n      modifier restAddress(address _address, uint amount){\r\n         require(Rest[_address]>=amount, \"Rest is not enough\");\r\n         _;\r\n     }\r\n}\r\n",
  "sourcePath": "C:/Users/79163/Documents/MEGA/MyWallet/contracts/Wal.sol",
  "compiler": {
    "name": "solc",
    "version": "0.7.6+commit.7338295f.Emscripten.clang"
  },
  "schemaVersion": "3.3.4",
  "updatedAt": "2021-03-10T10:14:40.842Z",
  "networkType": "ethereum",
  "devdoc": {
    "kind": "dev",
    "methods": {},
    "version": 1
  },
  "userdoc": {
    "kind": "user",
    "methods": {},
    "version": 1
  }
}